:020000040800F2
:10000000D04600209D010008A5010008A7010008B6
:10001000A9010008AB010008AD01000800000000C4
:10002000000000000000000000000000AF01000818
:10003000B101000800000000B3010008B50100088C
:10004000B7010008B7010008B7010008B7010008B0
:10005000B7010008B7010008DB0700082508000801
:100060002D080008350800083D080008B701000801
:10007000B7010008B7010008B7010008B701000880
:10008000B7010008B7010008B7010008B701000870
:10009000B7010008B7010008B701000845080008CB
:1000A000A50F0008F10F0008C90F0008B7010008EC
:1000B000331000085510000881100008B70100082F
:1000C000B7010008B7010008B7010008B701000830
:1000D000B70100082114000855140008891400080D
:1000E000E3070008B7010008B7010008F91000088D
:1000F000451100081D110008B7010008B7010008EC
:10010000B7010008B7010008A9100008B7010008EE
:10011000B9130008ED130008CF100008D51000082F
:10012000F9040008B7010008B7010008B70100088A
:10013000B7010008B7010008B7010008B7010008BF
:10014000B7010008B7010008B7010008B7010008AF
:10015000B7010008B7010008B7010008BD14000886
:10016000B7010008B7010008B7010008B70100088F
:10017000B7010008B7010008B7010008B70100087F
:10018000B7010008B7010008DFF80CD000F040F814
:1001900000480047CD230008D0460020064880478D
:1001A00006480047FEE7FEE7FEE7FEE7FEE7FEE75C
:1001B000FEE7FEE7FEE7FEE73D0F000889010008C5
:1001C000D2B201E000F8012B491EFBD27047002299
:1001D000F6E710B513460A4604461946FFF7F0FF46
:1001E000204610BD30B50B460146002020220124D8
:1001F00009E021FA02F59D4205D303FA02F5491BF5
:1002000004FA02F52844151EA2F10102F1DC30BD0A
:10021000064C074D06E0E06840F0010394E8070053
:1002200098471034AC42F6D3FFF7B2FF985E00084F
:10023000B85E00080029816802D041F0010101E0A8
:1002400021F0010181607047084B10B5D3F80423F9
:1002500007490A40D0E900142143D0E90240044391
:1002600021431143C3F8041310BD000000200140D6
:10027000E030FCFF0021016041608160C160704797
:100280000029816802D041F4807101E021F480717D
:10029000816070470029816802D041F4007101E05B
:1002A00021F400718160704710B501210C022046D5
:1002B00000F0A6FB2046BDE81040002100F0A0BBE6
:1002C00030B542680F4B0C791A400B6842EA0422A1
:1002D0001343436082680C4B4D791A40D1E90343C4
:1002E00023438C6844EA4504234313438360C26A72
:1002F000097D22F47002491EC9B242EA0151C1626D
:1003000030BD0000FFFEFFFCFDF7FFC070B5072603
:1003100009290AD9C568A1F10A0404EB4404A640DE
:10032000B543A3401D43C56007E0056901EB4104E7
:10033000A640B543A3401D4305611F23072A09D2E8
:10034000446B521E02EB820293409C4391400C434B
:10035000446370BD0D2A09D2046BD21F02EB8202E6
:1003600093409C4391400C43046370BDC46A0D3AB2
:1003700002EB820293409C4391400C43C46270BDE7
:1003800000210160017141718160C1600161012141
:100390000175704770B5A0B00121504800F000FB16
:1003A00001210D02284600F01FFB0121022000F070
:1003B00003FB02201D9003208DF8780000248DF8A7
:1003C0007B401DA9464800F065FA464E304600F0D5
:1003D000F7F8684600F0F0F94348E900CDE900403D
:1003E0004248CDE902044810CDE90414CDE90601E4
:1003F000C000CDE908050001CDE90A046946304690
:1004000000F0B0F93A49304600F0A4F80122182172
:10041000304600F091F938208DF870008DF8714069
:100420008DF8724001258DF873501CA800F086FAF3
:100430000121304600F0BAF8FFF736FF15A8FFF7A4
:1004400019FF2804CDE91540179415A81894FFF753
:10045000FBFE0FA8FFF794FF28070F9411904010A0
:100460008DF85050CDE912041F4D8DF840404C3DA1
:100470008DF841400FA92846FFF722FF01231A46B5
:1004800019462846FFF742FF01212846FFF702FFE1
:1004900001212846FFF7F4FE01212846FFF7CAFE96
:1004A000144D284600F07CFE19A800F07BFF42F2B4
:1004B000CF001A90ADF86440ADF86C40ADF86640DE
:1004C00019A9284600F030FF2021284600F024FF1B
:1004D0000121284600F05AFE20B070BD0100400006
:1004E00000000240106402404C200140CC32002049
:1004F0003D008010000400402DE9F0410F4F104EE8
:100500003946304600F0EEF80E4C012530B1394640
:10051000304600F035F80C48606025700B4F3046CF
:10052000394600F0DFF8002806D03946304600F0A2
:1005300027F8074860602570BDE8F0811040001082
:10054000106402402C000020CC32002020800010DB
:10055000CC3A0020074A904201D2074801E0054802
:100560001038064A8B0001EA020101D5C1607047CC
:100570008160704710640240006002407D0F7D0F73
:10058000074A904201D2074801E005481038064A60
:100590008B0001EA020101D5C1607047816070479C
:1005A00010640240006002407D0F7D0F0029016849
:1005B00002D041F0010101E021F00101016070472A
:1005C0002DE9F043016821F0010101600021016083
:1005D00041608160C1600161212141613C493C4A27
:1005E0003D251039904202D18D60BDE8F083384A34
:1005F0004FF474661832904201D18E60F5E7344AA8
:100600004FF474173032904201D18F60EDE7304AD9
:100610004FF0746C4832904202D1C1F808C0E4E750
:100620002B4B2C4A6033984201D1CA60DDE7284C3D
:10063000294B7834A04201D1CB60D6E7DFF8908017
:10064000264C08F19008404501D1CC60CDE7DFF899
:1006500080804FF03D5908F1A808404502D1C1F80B
:100660000C90C2E71E49DFF878800839404501D177
:100670000D60BAE71A4D1835A84201D10E60B4E7F3
:10068000174D3035A84201D10F60AEE7144D483503
:10069000A84202D1C1F800C0A7E7114D104960354A
:1006A000091FA84201D10A609FE70D4A78329042A3
:1006B00001D10B6099E70A4A9032904201D10C6057
:1006C00093E7074AA83290428FD1C1F800908CE797
:1006D000106002403D000020400F002000003D203F
:1006E0001064024030B5104A0024904201D20F4AF3
:1006F00001E00D4A103A0E4B194205D01E2303EAC1
:10070000D12503682B4002E0406900F08003880097
:1007100001D5506800E01068064A1040084201D038
:1007200003B10124204630BD106402400060024045
:100730003C0F3C0F7D0F7D0F0B0607D5436912B1AF
:1007400043F0800301E023F080034361802908D057
:10075000002A026801F01E0101D00A4300E08A432A
:100760000260704730B50368124ACC6813400A68CB
:100770002243D1E905452C432243CC6922430C6A2C
:1007800022434C6A22438C6A22434C6B22438C6B7B
:1007900022431A430260426922F00703D1E90B2485
:1007A00022431A4342610A6942604A68826089684A
:1007B000C16030BD3F801CF000210160416081605C
:1007C000C160016141618161C16101624162816217
:1007D000C16201634163816370470021012000F021
:1007E00063B910B50A214FF4806000F05DF90B2168
:1007F0004FF4006000F058F90C214FF4805000F0E5
:1008000053F90D214FF4005000F04EF90E214FF432
:10081000804000F049F9BDE810400F214FF400403E
:1008200000F042B90121022000F03EB9022104206B
:1008300000F03AB90321082000F036B90421102055
:1008400000F032B910B50521202000F02DF9062165
:10085000402000F029F90721802000F025F9082127
:10086000480100F021F9BDE8104009214FF4007063
:1008700000F01AB90149086070470000143C0140BB
:10088000034A0146002012680A4200D00120704746
:10089000143C0140F0B5002201274FF0030C0B6817
:1008A00007FA02F52B40AB422CD1066853000CFA34
:1008B00003F4A64306600E79D0F800E09E4046EAB5
:1008C0000E0606600E79012E01D0022E12D1866826
:1008D000A64386604E79D0F808E09E4046EA0E06B0
:1008E00086604668AE43466045688E799640B6B2EB
:1008F00035434560C568A543C560CC799C40C36855
:100900001C43C460521C102AC9D3F0BD4B07DB0E38
:100910009A40C90810B500EB8100016A0F249C4081
:10092000A1430162016A1143016210BD4183704716
:100930000183704742694A404261704730B50F23D6
:10094000C27801780125FAB1144A126801F1E02158
:1009500002F4E062C2F5E062C2F30722C2F10404CD
:10096000D3404278A24084781C401443220181F88D
:100970000024007800F01F018D404009800000F144
:10098000E020C0F8005130BD01F01F00854048094B
:10099000800000F1E020C0F8805130BD0CED00E097
:1009A000044A0029116801D0014300E0814311602D
:1009B0007047000030380240044A0029116801D015
:1009C000014300E08143116070470000403802405D
:1009D000044A0029116801D0014300E081431160FD
:1009E0007047000020380240044A0029116801D0F5
:1009F000014300E081431160704700004438024029
:100A0000044A0029116801D0014300E081431160CC
:100A1000704700002438024070B5204B1968204C04
:100A200011F00C0104D06610042903D0082903D06A
:100A300004601BE0066019E0184A121F1168C1F338
:100A40008055116801F03F0115B1B6FBF1F101E0ED
:100A5000B4FBF1F114681268C4F388146143C2F363
:100A60000142521C5200B1FBF2F1016019680F22E1
:100A700002EA11110B4A545C0168E14041601C68B4
:100A8000072505EA9424145D21FA04F484601B68A8
:100A900005EA5333D25CD140C16070BD08380240D2
:100AA0000024F4000000002070B50C460546FFF756
:100AB000E7FE002809D0054850F8241001B1884706
:100AC0002846BDE87040FFF7D5BE70BD8C320020CF
:100AD00010B5074C0121204600F00AFC002805D083
:100AE0000121204600F04FFB00F0F0FA10BD00009D
:100AF0000010004010B504466FF0040000F012FA38
:100B00000149E008087010BD1000002070B50546CE
:100B100000244FF47A7603E0304600F005F8641CB8
:100B2000AC42F9D370BD00000B49097848434FF03F
:100B3000E021486100238B61086940F001000861F1
:100B40000869C20701D0C003FAD5086920F0010086
:100B500008618B6170470000100000202DE9FC4700
:100B600091460C460546902839D2DFF8848005EB83
:100B7000450608EB86070121B868FFF711FFB88822
:100B800002210090002201208DF80510062C2CD2A5
:100B9000DFE804F02B0F140308278DF804008DF80C
:100BA000062003E08DF804008DF806008DF807207C
:100BB00008E08DF804208DF8070003E08DF804208C
:100BC0008DF8071058F826006946FFF763FE032CDE
:100BD00001D0042C03D14946284600F00BF8BDE8AB
:100BE000FC8703208DF80400E0E78DF80420DDE7A2
:100BF0003027000890280DD2074B00EB400203EB92
:100C000082000029818853F8220001D0FFF790BEAE
:100C1000FFF78CBE7047000030270008902809D2EB
:100C2000054A00EB400002EB800152F82000898861
:100C3000FFF780BE70470000302700082DE9FF4114
:100C40000F460E283ED2224E00EB400506EB8504EF
:100C50004FF00101207A0128606835D0FFF7ACFE23
:100C60001C4807EB87014FF0FF3202EB4101019175
:100C700042F21071B0FBF1F0401EADF80000002010
:100C8000ADF80800ADF8020056F82500694600F0FE
:100C90004BFB012256F82500114600F035FB607A27
:100CA0008DF80C0002208DF80D0001208DF80E004B
:100CB0008DF80F0003A8FFF741FE56F8250001212B
:100CC00000F064FABDE8FF81FFF78EFE0248C8E736
:100CD000D02F000800BD0105007A030A2DE9F04776
:100CE00088B0924689460C2870D2474E00EB8005AA
:100CF00006EBC504216A606908430121FFF750FE35
:100D0000207A4FF001010028606802D0FFF76CFEE6
:100D100001E0FFF751FE94F82420A17C54F80C0F59
:100D2000FFF7F4FD227EA17CE068FFF7EFFD0220D3
:100D30008DF804008DF8050000278DF806704FF03F
:100D400001088DF80780A088009069462068FFF7A9
:100D5000A1FD208A00906946E068FFF79BFDADF891
:100D60000C70ADF810700C20CDF80890ADF80E7036
:100D7000ADF81470ADF8120056F8350002A900F075
:100D800005FC56F8350040F22554BAF1000F38D072
:100D90001E49884201D125201AE01D49884201D10F
:100DA000262015E01B49884201D1272010E01A496E
:100DB000884201D134200BE01849884201D1352006
:100DC00006E01749884202D1472001E016E00020E2
:100DD0008DF818008DF819808DF81A808DF81B8019
:100DE00006A8FFF7ABFD56F835000122214600F0BA
:100DF000B5FB56F83500012100F080FB08B0BDE8D6
:100E0000F0870022F2E70000F02D000800100140FA
:100E10000044004000480040004C004000500040AA
:100E20000014014070B50E460C2810D2084D00EB9E
:100E30008004802155F8340000F06AFB0028F8D0C7
:100E400055F834003146BDE8704000F0F9BB70BD84
:100E5000F02D000870B50C4605460C2807D203E0BB
:100E60002846641CFFF7DEFF21780029F8D170BD09
:100E70000CB50022274900920192086840F48030A6
:100E800008604FF4A043086800F400300190009817
:100E9000401C0090019810B900989842F3D108685E
:100EA000800334D5012001901A484030026842F096
:100EB000805202601848026842F4404202601548BD
:100EC000083002680260026842F400420260026870
:100ED00042F4A0520260031F104A1A600A6842F0EE
:100EE00080720A600A689201FCD50D4940F20572D1
:100EF0000A60016821F003010160016841F002010C
:100F000001600168C1F381010229FAD10CBD01928F
:100F10000CBD00000038024000700040085440073B
:100F2000003C02404FF0E0210428086903D020F083
:100F300004000861704740F00400FAE7124810B559
:100F4000016841F4700101601048016841F001013D
:100F500001600E4A00210832116002680C4B1A40F1
:100F60000260031D0B4A1A60026822F480220260AC
:100F700006480C300160FFF77BFF03494FF000602B
:100F80008039086010BD000088ED00E000380240A4
:100F9000FFFFF6FE1030002470477047704770471F
:100FA0007047000010B5074C0121204600F0A0F961
:100FB000002805D00121204600F0E5F800F0E2F815
:100FC00010BD00000040014010B5074C0121204633
:100FD00000F08EF9002805D00121204600F0D3F85A
:100FE000FFF7DBFF10BD0000004801407047000024
:100FF00010B50D4C0121204600F07AF928B10121ED
:10100000204600F0C0F8FFF7F1FF084C0121204610
:1010100000F06EF9002805D00121204600F0B3F859
:10102000FFF7BAFF10BD000000000140004401407E
:10103000704710B501218C07204600F059F90028AF
:1010400005D00121204600F09EF8FFF7F1FF10BD0A
:101050007047000010B5074C0121204600F048F908
:10106000002805D00121204600F08DF8FFF7F0FFA1
:1010700010BD0000000400401220FFF7CFBD0000AB
:1010800010B5074C0121204600F032F9002805D0A8
:101090000121204600F077F8FFF7EEFF10BD0000B9
:1010A000000800407047000010B5074C01212046A1
:1010B00000F01EF9002805D00121204600F063F859
:1010C000FFF7F0FF10BD0000000C00407047FFF775
:1010D000FFBC704710B5074C0121204600F008F90D
:1010E000002805D00121204600F04DF8FFF7F1FF60
:1010F00010BD00000014004010B5074C012120462F
:1011000000F0F6F8002805D00121204600F03BF859
:10111000FFF744FF10BD00000018004010B5074C59
:101120000121204600F0E4F8002805D001212046E6
:1011300000F029F8FFF734FF10BD00000020004048
:101140007047000010B50D4C0121204600F0D0F88A
:1011500028B10121204600F016F8FFF7F1FF084CF6
:101160000121204600F0C4F8002805D001212046C6
:1011700000F009F8FFF713FF10BD00000004014064
:10118000001C00407047C943018270470029018854
:1011900002D041F0010101E021F00101018070471E
:1011A000464910B5884206D101210846FFF728FCC0
:1011B000002101205BE0B0F1804F09D04049884216
:1011C0000DD101210220FFF703FC0021022070E075
:1011D00001210846FFF7FCFB0021012069E03949A5
:1011E000884206D101210420FFF7F2FB00210420F0
:1011F0005FE03549884206D101210820FFF7E8FB6E
:101200000021082055E03149884206D101211020F3
:10121000FFF7DEFB002110204BE02D49884206D16C
:1012200001212020FFF7D4FB0021202041E02949A3
:10123000884206D101210220FFF7E2FB00210220B3
:1012400015E02549884202D101210C040AE0234916
:10125000884202D101214C0404E0214988420AD18C
:1012600001218C042046FFF7CBFB00212046BDE87E
:101270001040FFF7C5BB1B49884206D10121402021
:10128000FFF7A6FB0021402013E01749884206D152
:1012900001218020FFF79CFB0021802009E01349F9
:1012A00088420AD1841501212046FFF791FB0021D5
:1012B0002046BDE81040FFF78BBB10BD0000014089
:1012C0000004004000080040000C004000100040F6
:1012D000001400400004014000400140004401406F
:1012E0000048014000180040001C00400020004061
:1012F00002460020138A92890B4202EA010202D0C0
:10130000002A00D001207047002A828901D00A43B8
:1013100000E08A4382817047828822F070028280D6
:1013200082880A438280704730B50288164C174D78
:10133000A0420DD0A8420BD0B0F1804F08D0144B82
:10134000984205D0134B984202D0134B984203D1D8
:1013500022F070034A881A43104B984206D0104B73
:10136000984203D022F440730A891A4302804A68E3
:10137000C2620A880285A04201D0A84201D1897ABE
:1013800001860121818230BD00000140000401403E
:101390000004004000080040000C00400010004025
:1013A000001400404FF0FF314160002101800181B5
:1013B000418081727047000070B50B4D40F225549A
:1013C0002146284600F0ABF800280BD0284600F054
:1013D00033F9C0B201F01CF921462846BDE870403F
:1013E00000F086B870BD0000004C004070B50B4D99
:1013F00040F225542146284600F091F800280BD0F1
:10140000284600F019F9C0B201F032F92146284609
:10141000BDE8704000F06CB870BD000000500040A6
:1014200070B50B4D40F225542146284600F077F860
:1014300000280BD0284600F0FFF8C0B201F058F8A1
:1014400021462846BDE8704000F052B870BD00004B
:101450000010014070B50B4D40F22554214628463E
:1014600000F05DF800280BD0284600F0E5F8C0B287
:1014700001F06EF821462846BDE8704000F038B80B
:1014800070BD00000044004070B50B4D40F2255483
:101490002146284600F043F800280BD0284600F0EB
:1014A000CBF8C0B201F084F821462846BDE8704070
:1014B00000F01EB870BD00000048004070B50B4D34
:1014C00040F225542146284600F029F800280BD088
:1014D000284600F0B1F8C0B201F0FAF821462846DB
:1014E000BDE8704000F004B870BD00000014014079
:1014F0000A0A01219140C94301807047002981896E
:1015000002D041F4005101E021F400518181704783
:101510000246002012880A4200D00120704770B5B0
:1015200001F01F0501260024C1F3421306FA05F25B
:10153000012B0FD0022B0FD0838A4FEA1121008894
:10154000134206FA01F600EA060001D000B10124B8
:10155000204670BD8389F0E7038AEEE710B5C1F33A
:10156000421301F01F040121A140012B07D0022BDF
:1015700007D01430002A026805D00A4304E00C307A
:10158000F8E71030F6E78A43026010BD7FB50446E5
:10159000008A0D46C98820F4405001432182A08969
:1015A00041F20C618843A9882A8911436A89024360
:1015B0001143A181A08A20F44071A8890843A08228
:1015C0006846FFF729FA1A48844202D01948844233
:1015D00001D1039800E00298A189090400EBC00141
:1015E00001EB0010296801D5490000E08900B0FB3B
:1015F000F1F06422B0FBF2F109010B096FF018055C
:101600006B4300EB8300A3891D044FF0320306D522
:1016100003EBC000B0FBF2F000F0070005E003EBC5
:101620000010B0FBF2F000F00F00084320817FBDF6
:1016300000100140001401408088C0F3080070478A
:10164000C1F30801818070470FB4054B10B503A9A1
:10165000044A029800F018F810BC5DF814FB000072
:10166000BD2300081400002002E008C8121F08C1B2
:10167000002AFAD170477047002001E001C1121F13
:10168000002AFBD1704700002DE9FF4F89B09B462F
:101690000446002506E025280BD05A460B999047B2
:1016A000641C6D1C20780028F5D10DB02846BDE8DB
:1016B000F08F0027B8460122474900E0074314F89D
:1016C000013F203B02FA03F00842F7D120782E2890
:1016D00019D114F8010F47F004072A280ED06FF033
:1016E0002F022078A0F1300109290CD808EB8801DD
:1016F00002EB410100EB0108641CF2E70A98641C4C
:1017000050F8048B0A9020780028CED0642808D0A6
:10171000692806D075281ED05A460B9990476D1C33
:1017200058E00A994FF00A0901C90A91002802DA23
:1017300040422D2102E0390504D52B218DF82010DF
:10174000012103E0F90704D02021F7E78A4608AE1B
:101750000DE00021FAE70A994FF00A0901C90A9140
:10176000F7E74946FEF73EFD303106F8011D002837
:10177000F7D1ADEB060000F12009780701D44FF056
:101780000108C84502DDA8EB090000E00020804602
:10179000002706E008A85A46C05D0B9990476D1CCB
:1017A0007F1C5745F6DB04E030205A460B999047E2
:1017B0006D1CB8F10001A8F10108F5DC05E016F890
:1017C000010B5A460B9990476D1CB9F10001A9F124
:1017D0000109F4DC641C65E709280100F0B5002369
:1017E00017E032F81340A50802EB430450F82560D7
:1017F0006488A4089B1C50F8247040F8257040F8B9
:10180000246000EB850500EB84046E6867686F60F8
:1018100066608B42E5D3F0BD2DE9F041048898461F
:1018200017460E460546012A0CD1301D002107E05F
:1018300090ED000AB1EE400A80ED000A0830491C24
:10184000A142F5D3B4F5807F1BD008DC102C13D057
:10185000202C16D0402C19D0802C1DD10CE0B4F5D2
:10186000007F13D0B4F5806F06D0B4F5006F08D0B8
:10187000B4F5805F10D109E03146284600F032F817
:101880000AE03146284600F0F2F805E0214601233F
:1018900030466A6800F028FBB8F1000F04D0A9892F
:1018A0003046AA68FFF79AFF012F19D100EE104ABF
:1018B000B7EE001A0020F8EE400A81EE200A0DE093
:1018C000D6ED000A401C60EE800AC6ED000AD6ED97
:1018D000010A60EEC00AC6ED010A0836A042EFD345
:1018E000BDE8F0812DE9F04105462DED028B8C46D7
:1018F00002886F6801EB82005408804601EB840285
:1019000000EB8403A6087CD0D1ED007AD0ED002A4C
:1019100091ED017A90ED012A37EEA28AD1ED026AAB
:1019200091ED031AD0ED021AD0ED030AD2ED003A80
:1019300092ED010A92ED023AD2ED034A93ED006A6C
:10194000D3ED015A93ED025A93ED034A81ED008ADB
:1019500037EE028A77EEE22A37EE422A81ED018ADB
:1019600036EEA18A76EEE11A81ED028A31EE208A06
:1019700031EE601A73EE860A81ED038A76EE633AE1
:10198000C2ED000A70EE250A75EEC05AC2ED010ADA
:1019900073EE050A35EE435A34EE643AC2ED020A9C
:1019A00074EE840AC2ED030A97ED000AD7ED010A2E
:1019B00022EE804A62EE204A22EE002A62EEA02A3F
:1019C00034EE244A32EE622A80ED004A65EE802A27
:1019D00080ED012A23EEA02A65EEA00A23EE800AFC
:1019E00032EE622A30EE800A83ED002A83ED010A8E
:1019F00097ED020AD7ED030A21EE802A61EE202A34
:101A000000E024E021EE001A61EEA01A32EE222A54
:101A10001031103231EE611A80ED022A65EE201A83
:101A200080ED031A23EE001A63EE200A25EE000A69
:101A3000103031EEC11A07F1100730EE800A83ED45
:101A4000021A83ED030A1033761E7FF45DAF214640
:101A5000022360466A6800F047FA6A682146BDECD6
:101A6000028B4046BDE8F041022300F03DBA2DE96B
:101A7000F34F2DED048B87B00DF104090B9800880E
:101A800000914FEA500801EB880000EB880202EB5E
:101A9000880789E88500DDF82CC03D1F05EB880428
:101AA0004FEA5808DCF80490CDF810804FF0040895
:101AB000CDF818804FF00608CDF8148091ED000A9B
:101AC000D2ED000A90ED011A97ED013A70EE203A3E
:101AD00030EE602A91ED010AD2ED010A061F131FB4
:101AE00070EE201A70EE602A31EE020AD0ED000A84
:101AF00009F1080B09F1100A30EE434A72EEE04A90
:101B000097ED000A09F1180974EE805A73EEE04A65
:101B100034EEC05A71EEC14A32EE411A30EEA22ABA
:101B200070EEA30A74EEC34A31EE031A32EE402A75
:101B300030EE800A81ED000A90ED010AD7ED010A2E
:101B400030EE210A30EE200A81ED010A80ED004AD4
:101B5000C0ED015A82ED005AC2ED014A87ED001A2C
:101B600087ED012ADDF810800830A8F1020808315D
:101B70004FEA580C0832083791ED000AD2ED000AFE
:101B80005FEA0C0E7CD030EE202A30EE605A91EDE8
:101B9000010AD2ED010A90ED014AD7ED011A70EE6B
:101BA000202A30EE601A34EE050AD0ED000A70EEFD
:101BB000614A31EE603A97ED000A30EE811A73EE19
:101BC000005A32EE603A70EE820A31EE401A73EE3D
:101BD000403A30EE800A32EEC43A35EE444A81EDA6
:101BE000000A90ED010AD7ED010A33EE613A30EEBA
:101BF000220A74EE211A30EE200A81ED010A16ED58
:101C0000010A55ED010A13ED018A14ED012A70EE67
:101C1000207A70EE602A96ED000AD5ED000A70EE8B
:101C2000608A30EE207AD3ED000A94ED000A38EE97
:101C3000C84A30EEC09A34EE026A37EEC84A79EEEE
:101C4000226A79EE622A34EE425A37EE604A70EE2A
:101C5000870A32EE482A34EE404A30EE800A32EEED
:101C6000682A86ED000A13ED010A54ED010A30EEF0
:101C7000270A30EE200A06ED010A9BED000A00E07B
:101C800079E0DBED010A24EE807A083165EEA07A76
:101C900065EE805A64EEA04A0BF1080B37EE277A06
:101CA000AEF1010C75EEE44A80ED007A66EE805AE2
:101CB000C0ED014A66EE204A66EEA00A26EE000A52
:101CC000083074EEE54A30EE800AC3ED004A03EDB9
:101CD000010ADDF81880083B9AEC020A0AEB880A30
:101CE00063EE804A63EE205A23EE003A63EEA03A98
:101CF00074EEA54A33EE633AC2ED004A65EE203A2F
:101D000082ED013A24EE403A25EE000A64EE200A04
:101D1000083233EE633A30EEC00A85ED003A05ED45
:101D2000010ADDF81480083D99EC020A09EB8809E4
:101D300061EE803A21EE203A21EE001A61EEA01AFF
:101D400033EE833A31EE611A87ED003A62EE201AE3
:101D500087ED011A22EE801A62EEA00A22EE000A36
:101D600031EEC11A30EE800A84ED001A04ED010A4A
:101D7000083C083EFFE670EE201A30EE602A91ED36
:101D8000010AD2ED010AD0ED015A97ED015A30EE69
:101D9000204A70EE604A35EE820AD0ED000A32EE3B
:101DA000652A042330EE451A74EEE02A97ED000A06
:101DB00070EEA44A32EE052A72EE803A71EEE02A05
:101DC00070EEA10A74EEC04A32EEC03A30EE800ADC
:101DD00074EE652A81ED000A90ED010AD7ED010A43
:101DE00072EEC52A30EE040A30EE200A81ED010AB7
:101DF0009BEC020A21EE004A63EEA01A23EE800A51
:101E000061EE200A34EE211A30EE600A80ED001AED
:101E100080ED010ADAED000A9AED010A23EE201A9C
:101E200062EE801A62EEA00A23EE000A31EE211A59
:101E300030EEC00A82ED001A82ED010AD9ED000AE7
:101E400099ED010A22EE201A64EE801A64EEA00ACF
:101E500022EE000A31EE211A30EEC00A87ED001A98
:101E600087ED010A0B9804994268009800F03CF84D
:101E70000B98042304994268019800F035F80B98F8
:101E8000042304994268029800F02EF80B9804236A
:101E90004268DDE9030107B0BDEC048B02B0BDE888
:101EA000F04F00F021B800009FED0E1A17E090ED02
:101EB000000AD0ED010A0B4620EE000A091D083089
:101EC00000EEA00AB5EEC00AF1EE10FA04DBF1EE66
:101ED000C00AC3ED000A01E083ED001A521E002A79
:101EE000E5D17047000000002DE9FF4F2DED108B6C
:101EF00084B09FEDFEFA15990391C90800235E187E
:101F0000771807EB010808EB010404EB010CCDF88E
:101F100000800CEB010808EB010900EBC305CDF8CC
:101F2000089000EBC40495ED000A94ED001A00EB54
:101F3000C60E00EBCC0B70EE010A70EE412A9EED4E
:101F4000001ADBED001A00EBC70A00EBC80C31EEFB
:101F5000210A71EE611A9AED001A9CED003ADDF843
:101F60000080DDF8089000EBC80700EBC90631EEF1
:101F7000032A31EE434A97ED003AD6ED003A70EE6F
:101F8000C24A70EE820A33EE231A33EE633A30EE21
:101F9000412A30EE010A30EE801A30EEC00A85ED9B
:101FA000001A84ED000A95ED010AD4ED010A9BEDBB
:101FB000011ADCED013A70EE206A30EE605A9EEDB7
:101FC000010AD7ED015A96ED016A70EE010A30EE72
:101FD000411A9AED010A30EE237A30EE630A75EE6B
:101FE000863A35EEC66A76EEC75A36EE877A70EED6
:101FF000E36A70EEA30A77EE203A77EE600AC5ED49
:10200000013AC4ED010A74EEA60ACAED000A74EEA4
:10201000E60ACCED000A75EEC20ACAED010A75EEB9
:10202000820ACCED010A71EEC30A20EE8F2A71EE0E
:10203000830A72EEC23A20EE8F3A71EE460A32EE11
:10204000822A74EE032A60EE8F1A71EE060A34EECD
:10205000431A35EE613A60EE8F0A75EE211A30EEC2
:10206000604A30EE200A72EE000A32EE400ACEEDEF
:10207000000A86ED000A33EE840A8BED000A33EE87
:10208000C40A87ED000A31EEE20A8EED010A31EE54
:10209000A20A86ED010A33EE410A8BED010A33EE06
:1020A000010A87ED010A039C2344159CA342FFF417
:1020B00026AF08297ED301234FF0000E0193179C11
:1020C0000EEB040C4FEA4C0707EB0C0606EB0C0575
:1020D00005EB0C0404EB0C03E64603EB0E0802EBE5
:1020E000C30302EBCE0C02EBC70702EBC60602EB02
:1020F000C50502EBC40402EBC80893ED00BAD3EDAA
:10210000017ADCED00DA97ED00DAD6ED00CA95ED44
:1021100000CAD4ED00BAD8ED00AA9CED01AAD7ED13
:10212000019A96ED019AD5ED018A94ED018A98ED18
:10213000017A019B03EB010C0CEB010909EB010493
:10214000671800947C18651805EB010800EBC306BE
:10215000CDF8088000EBC70796ED000AD7ED000A1E
:1021600000EBCC0B00EBC40A70EE203A30EE601AA4
:10217000DBED000ADAED001A00EBC50C009C30EE36
:10218000A10A00EBC909DDF8088070EEE11A00EB46
:10219000C405D9ED000A9CED002A00EBC804D5ED7A
:1021A000002A94ED003A30EE824A30EEC22A72EEF6
:1021B000830A00E0FDE072EEC32A33EEC43A33EE48
:1021C000844A70EE603A30EE200A74EE000AC6EDE2
:1021D000000A74EE400A96ED010AD7ED014ADAEDE5
:1021E000015A99ED016A30EE244A30EE645A9BEDB3
:1021F000010A95ED01EAD4ED016A70EE254A70EE10
:10220000655A9CED010A76EE00EA36EE406A3EEE33
:10221000260A7EEE666A34EE6EEA34EE2E4A74EEDC
:10222000C0EA74EE804A33EE2E0A33EE6E3A74EE54
:1022300024EA74EE644A3EEE634AC6ED01EA7EEE9D
:10224000233A2CEE20EA68EEA4EA6CEE244A68EE0B
:10225000A00A3EEE2EEA74EEE00A87ED00EA69EE8F
:10226000844AC7ED010A6DEE000A2DEE044A29EEFC
:10227000800A70EEA40A34EE400AC9ED000A67EE47
:10228000A30A89ED010A2BEE030A6BEE233A27EE2F
:10229000833A30EE200A71EEA20A8CED000A33EE8A
:1022A000C30A60EE8F0A8CED010A31EEE20A75EE88
:1022B000A62A75EEE61A20EE0F0A22EE8F3A61EE9C
:1022C0008F1A71EE402A31EE000A32EE601A72EE79
:1022D000200A35EE612A75EE211A76EE433A36EE83
:1022E000034A30EE043A30EE440A01E0F304353F8D
:1022F00032EEA34A72EEE32A71EEE03A71EEA00AE2
:1023000072EE411A32EE011A2DEE832A6AEE234A4A
:102310006DEEA33A2AEE033A32EE242A8BED002A20
:1023200033EEC32A27EE203A6AEEA00A8BED012A8B
:102330002AEE802A27EE000A32EE032A30EEC00A87
:1023400068EE210A84ED002A84ED010A2BEE840A4E
:102350006BEEA11A28EE042A30EE200A69EE010A7B
:102360002CEE811A8AED000A31EEC20A69EE221AB9
:102370008AED010A2CEEA20A30EE200A85ED000A51
:1023800031EE610A85ED010A039C2344159CA342AA
:10239000FFF4D0AE019B5B1C01938B42FFF48FAE28
:1023A000179B4FF6FF7404EAC303179307293FF600
:1023B000A3AD04B0BDEC108BBDE8FF8F10B5044693
:1023C000C1B20020FEF72EFD204610BDA820FEF76A
:1023D00091FB012203211220FEF7C0FB00223349AA
:1023E0001046FEF77BFCFDF7D5FF4FF4FA71032092
:1023F000FEF724FCDFF8B880DFF8B89000254FF432
:10240000806A98F80000444601280CD12AA10020D7
:10241000FEF720FD2B490020FEF71CFD2AA100201D
:10242000FEF718FD257099F8001048460129E8D1FB
:10243000057026499FED260A264A9FED271A0B684C
:102440000020544633F8101000EE901A02EBC00141
:10245000401CF8EE600AA04270EEC00AC1EC020A0D
:10246000F0DB012300221B491C48FFF7D5F9224667
:102470001B491848FFF718FD1AA0FFF7E5F8184E9A
:1024800000244FF4007706EB840090ED000A17A0BB
:10249000BCEEC00A10EE101AFFF7D6F8641CBC425E
:1024A000F1DB6420FEF732FBABE700000094110083
:1024B000180000202C000020554152543120536157
:1024C000793A2000343000200D0A0000300000204E
:1024D0000080BB443400002000000000885E00083B
:1024E0003420002053544152540A000025640A004D
:1024F000F0B4154B002401259A796AB11946134EA0
:10250000C979012A14D0022A04D10A289C7101D168
:1025100074541D70F0BC70474028FBD11878002817
:10252000F8D19D71DC71F0BC64210848FDF74FBE05
:102530000D2805D06329EDD27054491CD971E9E703
:1025400002209871E6E700001800002034300020D7
:10255000F0B4154B002401251A7A6AB11946134EBE
:10256000497A012A14D0022A04D10A281C7201D106
:1025700074545D70F0BC70474028FBD15878002837
:10258000F8D11D725C72F0BC64210848FDF71FBED3
:102590000D2805D06329EDD27054491C5972E9E722
:1025A00002201872E6E70000180000209830002092
:1025B000F0B4154B002401259A7A6AB11946134EDE
:1025C000C97A012A14D0022A04D10A289C7201D1A6
:1025D00074549D70F0BC70474028FBD19878002857
:1025E000F8D19D72DC72F0BC64210848FDF7EFBDA4
:1025F0000D2805D06329EDD27054491CD972E9E742
:1026000002209872E6E7000018000020FC3000204D
:10261000F0B4154B002401251A7B6AB11946134EFC
:10262000497B012A14D0022A04D10A281C7301D143
:102630007454DD70F0BC70474028FBD1D878002876
:10264000F8D11D735C73F0BC64210848FDF7BFBD71
:102650000D2805D06329EDD27054491C5973E9E760
:1026600002201873E6E70000180000206031002007
:10267000F0B4154B002401259A7B6AB11946134E1C
:10268000C97B012A14D0022A04D10A289C7301D1E3
:1026900074541D71F0BC70474028FBD11879002894
:1026A000F8D19D73DC73F0BC64210848FDF78FBD41
:1026B0000D2805D06329EDD27054491CD973E9E780
:1026C00002209873E6E7000018000020C4310020C3
:1026D000F0B4154B002401251A7C6AB11946134E3B
:1026E000497C012A14D0022A04D10A281C7401D181
:1026F00074545D71F0BC70474028FBD158790028B4
:10270000F8D11D745C74F0BC64210848FDF75FBD0E
:102710000D2805D06329EDD27054491C5974E9E79E
:1027200002201874E6E7000018000020283200207C
:102730000000024001000000010000000000024013
:102740000200000001000000000002400400000040
:10275000010000000000024008000000010000002D
:1027600000000240100000000100000000000240D4
:1027700020000000010000000000024040000000B6
:102780000100000000000240800000000100000085
:1027900000000240000100000100000000000240B3
:1027A00000020000010000000000024000040000E0
:1027B00001000000000002400008000001000000CD
:1027C0000000024000100000010000000000024074
:1027D0000020000001000000000002400040000056
:1027E0000100000000000240008000000100000025
:1027F000000402400100000002000000000402404A
:10280000020000000200000000040240040000007A
:102810000200000000040240080000000200000066
:10282000000402401000000002000000000402400A
:1028300020000000020000000004024040000000F0
:1028400002000000000402408000000002000000BE
:1028500000040240000100000200000000040240E9
:10286000000200000200000000040240000400001A
:102870000200000000040240000800000200000006
:1028800000040240001000000200000000040240AA
:102890000020000002000000000402400040000090
:1028A000020000000004024000800000020000005E
:1028B000000802400100000004000000000802407F
:1028C00002000000040000000008024004000000B4
:1028D000040000000008024008000000040000009E
:1028E0000008024010000000040000000008024040
:1028F000200000000400000000080240400000002A
:1029000004000000000802408000000004000000F5
:10291000000802400001000004000000000802401E
:102920000002000004000000000802400004000053
:10293000040000000008024000080000040000003D
:1029400000080240001000000400000000080240DF
:1029500000200000040000000008024000400000C9
:102960000400000000080240008000000400000095
:10297000000C02400100000008000000000C0240B2
:102980000200000008000000000C024004000000EB
:1029900008000000000C02400800000008000000D1
:1029A000000C02401000000008000000000C024073
:1029B0002000000008000000000C02404000000061
:1029C00008000000000C0240800000000800000029
:1029D000000C02400001000008000000000C024052
:1029E0000002000008000000000C0240000400008B
:1029F00008000000000C0240000800000800000071
:102A0000000C02400010000008000000000C024012
:102A10000020000008000000000C02400040000000
:102A200008000000000C02400080000008000000C8
:102A300000100240010000001000000000100240E1
:102A4000020000001000000000100240040000001E
:102A500010000000001002400800000010000000FC
:102A600000100240100000001000000000100240A2
:102A70002000000010000000001002404000000094
:102A80001000000000100240800000001000000054
:102A90000010024000010000100000000010024081
:102AA00000020000100000000010024000040000BE
:102AB000100000000010024000080000100000009C
:102AC0000010024000100000100000000010024042
:102AD0000020000010000000001002400040000034
:102AE00010000000001002400080000010000000F4
:102AF0000014024001000000200000000014024009
:102B00000200000020000000001402400400000049
:102B10002000000000140240080000002000000017
:102B200000140240100000002000000000140240C9
:102B300020000000200000000014024040000000BF
:102B4000200000000014024080000000200000006F
:102B500000140240000100002000000000140240A8
:102B600000020000200000000014024000040000E9
:102B700020000000001402400008000020000000B7
:102B80000014024000100000200000000014024069
:102B9000002000002000000000140240004000005F
:102BA000200000000014024000800000200000000F
:102BB0000018024001000000400000000018024020
:102BC0000200000040000000001802400400000065
:102BD0004000000000180240080000004000000013
:102BE00000180240100000004000000000180240E1
:102BF00020000000400000000018024040000000DB
:102C0000400000000018024080000000400000006A
:102C100000180240000100004000000000180240BF
:102C20000002000040000000001802400004000004
:102C300040000000001802400008000040000000B2
:102C40000018024000100000400000000018024080
:102C5000002000004000000000180240004000007A
:102C6000400000000018024000800000400000000A
:102C7000001C02400100000080000000001C024017
:102C80000200000080000000001C02400400000060
:102C900080000000001C02400800000080000000CE
:102CA000001C02401000000080000000001C0240D8
:102CB0002000000080000000001C024040000000D6
:102CC00080000000001C0240800000008000000026
:102CD000001C02400001000080000000001C0240B7
:102CE0000002000080000000001C02400004000000
:102CF00080000000001C024000080000800000006E
:102D0000001C02400010000080000000001C024077
:102D10000020000080000000001C02400040000075
:102D200080000000001C02400080000080000000C5
:102D300000200240010000000001000000200240CD
:102D4000020000000001000000200240040000001A
:102D50000001000000200240080000000001000007
:102D6000002002401000000000010000002002408E
:102D70002000000000010000002002404000000090
:102D8000000100000020024080000000000100005F
:102D9000002002400001000000010000002002406D
:102DA00000020000000100000020024000040000BA
:102DB00000010000002002400008000000010000A7
:102DC000002002400010000000010000002002402E
:102DD0000020000000010000002002400040000030
:102DE00000010000002002400080000000010000FF
:102DF000001001401000000001000000000002402F
:102E000000020900010000000000024000040A0066
:102E10000100000007000000001001401000000049
:102E20000100000000040240400006000200000013
:102E300000040240800007000200000007000000BC
:102E400000440040000002000000000000000240BA
:102E5000040002000100000000000240080003001E
:102E600001000000070000000044004000000200D4
:102E700000000000000C02402000050008000000D7
:102E8000000C02404000060008000000070000009F
:102E90000048004000000400000000000004024060
:102EA00000040A00020000000004024000080B00B9
:102EB000020000000700000000480040000004007D
:102EC000000000000008024000040A0004000000A6
:102ED0000008024000080B0004000000070000008A
:102EE000004800400000040000000000000C024008
:102EF0000001080008000000000C02400002090068
:102F00000800000007000000004C0040000008001E
:102F1000000000000000024001000000010000006D
:102F20000000024002000100010000000800000053
:102F3000004C0040000008000000000000080240B3
:102F400000040A00040000000008024000080B0012
:102F500004000000080000000050004000001000C5
:102F6000000000000008024000100C0004000000F7
:102F7000000C0240040002000800000008000000ED
:102F80000014014020000000010000000008024081
:102F90004000060004000000000802408000070016
:102FA00004000000080000000014014020000000A0
:102FB000010000000018024000400E004000000028
:102FC0000018024000020900400000000800000054
:102FD0000000014001000000011900000000004055
:102FE00001000000001C000000040040020000007E
:102FF000001D00000008004004000000001E00004A
:10300000000C0040080000000032000000100040EA
:1030100010000000003600000014004020000000F6
:10302000003700000004014002000000012C0000F5
:103030000040014000000100011800000044014070
:1030400000000200011900000048014000000400D7
:10305000011A00000018004040000000002B000092
:10306000001C004080000000002C000000200040F8
:1030700000010000002D00000000803F0000000063
:10308000C4FE7F3F890FC93B11FB7F3F900E493C37
:10309000E6F47F3FB6C9963C43EC7F3FB00AC93C9B
:1030A00029E17F3FB949FB3C98D37F3F2CC3163DB4
:1030B0008FC37F3F07E02F3D0FB17F3F2FFB483D80
:1030C000189C7F3F6814623DAB847F3F742B7B3D2F
:1030D000C76A7F3F0A208A3D6D4E7F3F05A9963D16
:1030E0009D2F7F3F8C30A33D580E7F3F80B6AF3D74
:1030F0009DEA7E3FC33ABC3D6DC47E3F36BDC83DB0
:10310000C99B7E3FB93DD53DB0707E3F2EBCE13DB1
:1031100023437E3F7638EE3D24137E3F73B2FA3D63
:10312000B1E07D3F0295033ECCAB7D3F86CF093EAB
:1031300074747D3FB708103EAC3A7D3F8340163E25
:1031400073FE7C3FDE761C3EC9BF7C3FB6AB223EA1
:10315000B07E7C3FFCDE283E283B7C3FA2102F3E09
:1031600031F57B3F9840353ECDAC7B3FCF6E3B3E4B
:10317000FC617B3F379B413EBE147B3FC2C5473E4F
:1031800016C57A3F60EE4D3E02737A3F0115543EFC
:10319000841E7A3F97395A3E9DC7793F135C603E43
:1031A0004E6E793F667C663E9812793F7F9A6C3E00
:1031B0007BB4783F51B6723EF853783FCCCF783E1F
:1031C00010F1773FE1E67E3EC58B773FC07D823EC2
:1031D0001724773FCE86853E07BA763F938E883E8A
:1031E000974D763F07958B3EC6DE753F229A8E3E01
:1031F000976D753FDD9D913E0BFA743F31A0943E73
:103200002284743F17A1973EDD0B743F86A09A3E3F
:103210003F91733F789E9D3E4714733FE59AA03ED1
:10322000F894723FC595A33E5213723F128FA63E8B
:10323000578F713FC486A93E0809713FD47CAC3ECC
:103240006680703F3A71AF3E73F56F3FEF63B23EF9
:1032500030686F3FEC54B53E9ED86E3F2A44B83E6E
:10326000BE466E3FA031BB3E93B26D3F4A1DBE3E8F
:103270001D1C6D3F1E07C13E5E836C3F15EFC33EB4
:1032800058E86B3F29D5C63E0C4B6B3F53B9C93E3E
:103290007BAB6A3F8B9BCC3EA7096A3FCA7BCF3E84
:1032A0009165693F095AD23E3CBF683F4136D53EE1
:1032B000A816683F6B10D83ED86B673F80E8DA3EAF
:1032C000CCBE663F79BEDD3E880F663F4F92E03E42
:1032D0000B5E653FFA63E33E59AA643F7533E63EF1
:1032E00073F4633FB700E93E5A3C633FBBCBEB3E10
:1032F0001082623F7994EE3E98C5613FEA5AF13EF2
:10330000F206613F071FF43E2146603FCBE0F63EE8
:1033100027835F3F2DA0F93E05BE5E3F275DFC3E43
:10332000BEF65D3FB217FF3E532D5D3FE4E7003F21
:10333000C7615C3FB142023F1A945B3F3D9C033F33
:1033400050C45A3F84F4043F6AF2593F824B063F0F
:103350006A1E593F36A1073F5348583F9BF5083F27
:103360002670573FAD480A3FE595563F6B9A0B3F95
:1033700093B9553FD0EA0C3F31DB543FDA390E3F69
:10338000C3FA533F84870F3F4918533FCDD3103FB3
:10339000C633523FB01E123F3D4D513F2A68133F86
:1033A000AF64503F39B0143F1F7A4F3FD9F6153FF5
:1033B000908D4E3F073C173F029F4D3FC07F183F07
:1033C00079AE4C3F00C2193FF8BB4B3FC6021B3FD2
:1033D0007FC74A3F0C421C3F12D1493FD17F1D3F5E
:1033E000B3D8483F12BC1E3F65DE473FCBF61F3FB8
:1033F0002AE2463FF92F213F03E4453F9967223FE8
:10340000F5E3443FA99D233F00E2433F25D2243FFB
:1034100029DE423F0A05263F70D8413F5636273FF6
:10342000DAD0403F0566283F67C73F3F1594293FE4
:103430001BBC3E3F82C02A3FF9AE3D3F4AEB2B3FCB
:1034400003A03C3F69142D3F3B8F3B3FDE3B2E3FAB
:10345000A47C3A3FA5612F3F4268393FBB85303F8E
:103460001652383F1DA8313F233A373FC9C8323F73
:103470006C20363FBCE7333FF304353FF304353F60
:10348000BCE7333F6C20363FC9C8323F233A373F51
:103490001DA8313F1652383FBB85303F4268393F47
:1034A000A5612F3FA47C3A3FDE3B2E3F3B8F3B3F45
:1034B00069142D3F03A03C3F4AEB2B3FF9AE3D3F43
:1034C00082C02A3F1BBC3E3F1594293F67C73F3F40
:1034D0000566283FDAD0403F5636273F70D8413F37
:1034E0000A05263F29DE423F25D2243F00E2433F22
:1034F000A99D233FF5E3443F9967223F03E4453FFD
:10350000F92F213F2AE2463FCBF61F3F65DE473FBA
:1035100012BC1E3FB3D8483FD17F1D3F12D1493F57
:103520000C421C3F7FC74A3FC6021B3FF8BB4B3FC4
:1035300000C2193F79AE4C3FC07F183F029F4D3FFC
:10354000073C173F908D4E3FD9F6153F1F7A4F3FEE
:1035500039B0143FAF64503F2A68133F3D4D513F8F
:10356000B01E123FC633523FCDD3103F4918533FD0
:1035700084870F3FC3FA533FDA390E3F31DB543FA4
:10358000D0EA0C3F93B9553F6B9A0B3FE595563FF8
:10359000AD480A3F2670573F9BF5083F5348583FB8
:1035A00036A1073F6A1E593F824B063F6AF2593FD8
:1035B00084F4043F50C45A3F3D9C033F1A945B3F40
:1035C000B142023FC7615C3FE4E7003F532D5D3FDE
:1035D000B217FF3EBEF65D3F275DFC3E05BE5E3F77
:1035E0002DA0F93E27835F3FCBE0F63E2146603FAA
:1035F000071FF43EF206613FEA5AF13E98C5613F6B
:103600007994EE3E1082623FBBCBEB3E5A3C633F67
:10361000B700E93E73F4633F7533E63E59AA643F51
:10362000FA63E33E0B5E653F4F92E03E880F663FD4
:1036300079BEDD3ECCBE663F80E8DA3ED86B673FA0
:103640006B10D83EA816683F4136D53E3CBF683F58
:10365000095AD23E9165693FCA7BCF3EA7096A3FAE
:103660008B9BCC3E7BAB6A3F53B9C93E0C4B6B3F47
:1036700029D5C63E58E86B3F15EFC33E5E836C3FCD
:103680001E07C13E1D1C6D3F4A1DBE3E93B26D3FDD
:10369000A031BB3EBE466E3F2A44B83E9ED86E3F28
:1036A000EC54B53E30686F3FEF63B23E73F56F3F49
:1036B0003A71AF3E6680703FD47CAC3E0809713FE2
:1036C000C486A93E578F713F128FA63E5213723F98
:1036D000C595A33EF894723FE59AA03E4714733F08
:1036E000789E9D3E3F91733F86A09A3EDD0B743FCE
:1036F00017A1973E2284743F31A0943E0BFA743F89
:10370000DD9D913E976D753F229A8E3EC6DE753FD8
:1037100007958B3E974D763F938E883E07BA763F4E
:10372000CE86853E1724773FC07D823EC58B773F8E
:10373000E1E67E3E10F1773FCCCF783EF853783FFC
:1037400051B6723E7BB4783F7F9A6C3E9812793FB7
:10375000667C663E4E6E793F135C603E9DC7793F46
:1037600097395A3E841E7A3F0115543E02737A3FC0
:1037700060EE4D3E16C57A3FC2C5473EBE147B3F44
:10378000379B413EFC617B3FCF6E3B3ECDAC7B3FE8
:103790009840353E31F57B3FA2102F3E283B7C3FC1
:1037A000FCDE283EB07E7C3FB6AB223EC9BF7C3FEC
:1037B000DE761C3E73FE7C3F8340163EAC3A7D3F76
:1037C000B708103E74747D3F86CF093ECCAB7D3F79
:1037D0000295033EB1E07D3F73B2FA3D24137E3F74
:1037E0007638EE3D23437E3F2EBCE13DB0707E3FF8
:1037F000B93DD53DC99B7E3F36BDC83D6DC47E3FBA
:10380000C33ABC3D9DEA7E3F80B6AF3D580E7F3F38
:103810008C30A33D9D2F7F3F05A9963D6D4E7F3F88
:103820000A208A3DC76A7F3F742B7B3DAB847F3F74
:103830006814623D189C7F3F2FFB483D0FB17F3FCE
:1038400007E02F3D8FC37F3F2CC3163D98D37F3FAA
:10385000B949FB3C29E17F3FB00AC93C43EC7F3FBB
:10386000B6C9963CE6F47F3F900E493C11FB7F3F82
:10387000890FC93BC4FE7F3F000000000000803F6D
:10388000890FC9BBC4FE7F3F900E49BC11FB7F3F2F
:10389000B6C996BCE6F47F3FB00AC9BC43EC7F3F93
:1038A000B949FBBC29E17F3F2CC316BD98D37F3FAC
:1038B00007E02FBD8FC37F3F2FFB48BD0FB17F3F78
:1038C000681462BD189C7F3F742B7BBDAB847F3F27
:1038D0000A208ABDC76A7F3F05A996BD6D4E7F3F0E
:1038E0008C30A3BD9D2F7F3F80B6AFBD580E7F3F6C
:1038F000C33ABCBD9DEA7E3F36BDC8BD6DC47E3FA8
:10390000B93DD5BDC99B7E3F2EBCE1BDB0707E3FA9
:103910007638EEBD23437E3F73B2FABD24137E3F5B
:10392000029503BEB1E07D3F86CF09BECCAB7D3FA3
:10393000B70810BE74747D3F834016BEAC3A7D3F1D
:10394000DE761CBE73FE7C3FB6AB22BEC9BF7C3F99
:10395000FCDE28BEB07E7C3FA2102FBE283B7C3F01
:10396000984035BE31F57B3FCF6E3BBECDAC7B3F43
:10397000379B41BEFC617B3FC2C547BEBE147B3F47
:1039800060EE4DBE16C57A3F011554BE02737A3FF4
:1039900097395ABE841E7A3F135C60BE9DC7793F3B
:1039A000667C66BE4E6E793F7F9A6CBE9812793FF8
:1039B00051B672BE7BB4783FCCCF78BEF853783F17
:1039C000E1E67EBE10F1773FC07D82BEC58B773FBA
:1039D000CE8685BE1724773F938E88BE07BA763F82
:1039E00007958BBE974D763F229A8EBEC6DE753FF9
:1039F000DD9D91BE976D753F31A094BE0BFA743F6B
:103A000017A197BE2284743F86A09ABEDD0B743F37
:103A1000789E9DBE3F91733FE59AA0BE4714733FC9
:103A2000C595A3BEF894723F128FA6BE5213723F83
:103A3000C486A9BE578F713FD47CACBE0809713FC4
:103A40003A71AFBE6680703FEF63B2BE73F56F3FF1
:103A5000EC54B5BE30686F3F2A44B8BE9ED86E3F66
:103A6000A031BBBEBE466E3F4A1DBEBE93B26D3F87
:103A70001E07C1BE1D1C6D3F15EFC3BE5E836C3FAC
:103A800029D5C6BE58E86B3F53B9C9BE0C4B6B3F36
:103A90008B9BCCBE7BAB6A3FCA7BCFBEA7096A3F7C
:103AA000095AD2BE9165693F4136D5BE3CBF683FD9
:103AB0006B10D8BEA816683F80E8DABED86B673FA7
:103AC00079BEDDBECCBE663F4F92E0BE880F663F3A
:103AD000FA63E3BE0B5E653F7533E6BE59AA643FE9
:103AE000B700E9BE73F4633FBBCBEBBE5A3C633F08
:103AF0007994EEBE1082623FEA5AF1BE98C5613FEA
:103B0000071FF4BEF206613FCBE0F6BE2146603FE0
:103B10002DA0F9BE27835F3F275DFCBE05BE5E3F3B
:103B2000B217FFBEBEF65D3FE4E700BF532D5D3F19
:103B3000B14202BFC7615C3F3D9C03BF1A945B3F2B
:103B400084F404BF50C45A3F824B06BF6AF2593F07
:103B500036A107BF6A1E593F9BF508BF5348583F1F
:103B6000AD480ABF2670573F6B9A0BBFE595563F8D
:103B7000D0EA0CBF93B9553FDA390EBF31DB543F61
:103B800084870FBFC3FA533FCDD310BF4918533FAB
:103B9000B01E12BFC633523F2A6813BF3D4D513F7E
:103BA00039B014BFAF64503FD9F615BF1F7A4F3FED
:103BB000073C17BF908D4E3FC07F18BF029F4D3FFF
:103BC00000C219BF79AE4C3FC6021BBFF8BB4B3FCA
:103BD0000C421CBF7FC74A3FD17F1DBF12D1493F56
:103BE00012BC1EBFB3D8483FCBF61FBF65DE473FB0
:103BF000F92F21BF2AE2463F996722BF03E4453FE0
:103C0000A99D23BFF5E3443F25D224BF00E2433FF3
:103C10000A0526BF29DE423F563627BF70D8413FEE
:103C2000056628BFDAD0403F159429BF67C73F3FDC
:103C300082C02ABF1BBC3E3F4AEB2BBFF9AE3D3FC3
:103C400069142DBF03A03C3FDE3B2EBF3B8F3B3FA3
:103C5000A5612FBFA47C3A3FBB8530BF4268393F86
:103C60001DA831BF1652383FC9C832BF233A373F6B
:103C7000BCE733BF6C20363FF30435BFF304353F58
:103C80006C2036BFBCE7333F233A37BFC9C8323F49
:103C9000165238BF1DA8313F426839BFBB85303F3F
:103CA000A47C3ABFA5612F3F3B8F3BBFDE3B2E3F3D
:103CB00003A03CBF69142D3FF9AE3DBF4AEB2B3F3B
:103CC0001BBC3EBF82C02A3F67C73FBF1594293F38
:103CD000DAD040BF0566283F70D841BF5636273F2F
:103CE00029DE42BF0A05263F00E243BF25D2243F1A
:103CF000F5E344BFA99D233F03E445BF9967223FF5
:103D00002AE246BFF92F213F65DE47BFCBF61F3FB2
:103D1000B3D848BF12BC1E3F12D149BFD17F1D3F4F
:103D20007FC74ABF0C421C3FF8BB4BBFC6021B3FBC
:103D300079AE4CBF00C2193F029F4DBFC07F183FF4
:103D4000908D4EBF073C173F1F7A4FBFD9F6153FE6
:103D5000AF6450BF39B0143F3D4D51BF2A68133F87
:103D6000C63352BFB01E123F491853BFCDD3103FC8
:103D7000C3FA53BF84870F3F31DB54BFDA390E3F9C
:103D800093B955BFD0EA0C3FE59556BF6B9A0B3FF0
:103D9000267057BFAD480A3F534858BF9BF5083FB0
:103DA0006A1E59BF36A1073F6AF259BF824B063FD0
:103DB00050C45ABF84F4043F1A945BBF3D9C033F38
:103DC000C7615CBFB142023F532D5DBFE4E7003FD6
:103DD000BEF65DBFB217FF3E05BE5EBF275DFC3E6F
:103DE00027835FBF2DA0F93E214660BFCBE0F63EA2
:103DF000F20661BF071FF43E98C561BFEA5AF13E63
:103E0000108262BF7994EE3E5A3C63BFBBCBEB3E5F
:103E100073F463BFB700E93E59AA64BF7533E63E49
:103E20000B5E65BFFA63E33E880F66BF4F92E03ECC
:103E3000CCBE66BF79BEDD3ED86B67BF80E8DA3E98
:103E4000A81668BF6B10D83E3CBF68BF4136D53E50
:103E5000916569BF095AD23EA7096ABFCA7BCF3EA6
:103E60007BAB6ABF8B9BCC3E0C4B6BBF53B9C93E3F
:103E700058E86BBF29D5C63E5E836CBF15EFC33EC5
:103E80001D1C6DBF1E07C13E93B26DBF4A1DBE3ED5
:103E9000BE466EBFA031BB3E9ED86EBF2A44B83E20
:103EA00030686FBFEC54B53E73F56FBFEF63B23E41
:103EB000668070BF3A71AF3E080971BFD47CAC3EDA
:103EC000578F71BFC486A93E521372BF128FA63E90
:103ED000F89472BFC595A33E471473BFE59AA03E00
:103EE0003F9173BF789E9D3EDD0B74BF86A09A3EC6
:103EF000228474BF17A1973E0BFA74BF31A0943E81
:103F0000976D75BFDD9D913EC6DE75BF229A8E3ED0
:103F1000974D76BF07958B3E07BA76BF938E883E46
:103F2000172477BFCE86853EC58B77BFC07D823E86
:103F300010F177BFE1E67E3EF85378BFCCCF783EF4
:103F40007BB478BF51B6723E981279BF7F9A6C3EAF
:103F50004E6E79BF667C663E9DC779BF135C603E3E
:103F6000841E7ABF97395A3E02737ABF0115543EB8
:103F700016C57ABF60EE4D3EBE147BBFC2C5473E3C
:103F8000FC617BBF379B413ECDAC7BBFCF6E3B3EE0
:103F900031F57BBF9840353E283B7CBFA2102F3EB9
:103FA000B07E7CBFFCDE283EC9BF7CBFB6AB223EE4
:103FB00073FE7CBFDE761C3EAC3A7DBF8340163E6E
:103FC00074747DBFB708103ECCAB7DBF86CF093E71
:103FD000B1E07DBF0295033E24137EBF73B2FA3D6C
:103FE00023437EBF7638EE3DB0707EBF2EBCE13DF0
:103FF000C99B7EBFB93DD53D6DC47EBF36BDC83DB2
:104000009DEA7EBFC33ABC3D580E7FBF80B6AF3D30
:104010009D2F7FBF8C30A33D6D4E7FBF05A9963D80
:10402000C76A7FBF0A208A3DAB847FBF742B7B3D6C
:10403000189C7FBF6814623D0FB17FBF2FFB483DC6
:104040008FC37FBF07E02F3D98D37FBF2CC3163DA2
:1040500029E17FBFB949FB3C43EC7FBFB00AC93CB3
:10406000E6F47FBFB6C9963C11FB7FBF900E493C7A
:10407000C4FE7FBF890FC93B000080BF0000000065
:10408000C4FE7FBF890FC9BB11FB7FBF900E49BC27
:10409000E6F47FBFB6C996BC43EC7FBFB00AC9BC8B
:1040A00029E17FBFB949FBBC98D37FBF2CC316BDA4
:1040B0008FC37FBF07E02FBD0FB17FBF2FFB48BD70
:1040C000189C7FBF681462BDAB847FBF742B7BBD1F
:1040D000C76A7FBF0A208ABD6D4E7FBF05A996BD06
:1040E0009D2F7FBF8C30A3BD580E7FBF80B6AFBD64
:1040F0009DEA7EBFC33ABCBD6DC47EBF36BDC8BDA0
:10410000C99B7EBFB93DD5BDB0707EBF2EBCE1BDA1
:1041100023437EBF7638EEBD24137EBF73B2FABD53
:10412000B1E07DBF029503BECCAB7DBF86CF09BE9B
:1041300074747DBFB70810BEAC3A7DBF834016BE15
:1041400073FE7CBFDE761CBEC9BF7CBFB6AB22BE91
:10415000B07E7CBFFCDE28BE283B7CBFA2102FBEF9
:1041600031F57BBF984035BECDAC7BBFCF6E3BBE3B
:10417000FC617BBF379B41BEBE147BBFC2C547BE3F
:1041800016C57ABF60EE4DBE02737ABF011554BEEC
:10419000841E7ABF97395ABE9DC779BF135C60BE33
:1041A0004E6E79BF667C66BE981279BF7F9A6CBEF0
:1041B0007BB478BF51B672BEF85378BFCCCF78BE0F
:1041C00010F177BFE1E67EBEC58B77BFC07D82BEB2
:1041D000172477BFCE8685BE07BA76BF938E88BE7A
:1041E000974D76BF07958BBEC6DE75BF229A8EBEF1
:1041F000976D75BFDD9D91BE0BFA74BF31A094BE63
:10420000228474BF17A197BEDD0B74BF86A09ABE2F
:104210003F9173BF789E9DBE471473BFE59AA0BEC1
:10422000F89472BFC595A3BE521372BF128FA6BE7B
:10423000578F71BFC486A9BE080971BFD47CACBEBC
:10424000668070BF3A71AFBE73F56FBFEF63B2BEE9
:1042500030686FBFEC54B5BE9ED86EBF2A44B8BE5E
:10426000BE466EBFA031BBBE93B26DBF4A1DBEBE7F
:104270001D1C6DBF1E07C1BE5E836CBF15EFC3BEA4
:1042800058E86BBF29D5C6BE0C4B6BBF53B9C9BE2E
:104290007BAB6ABF8B9BCCBEA7096ABFCA7BCFBE74
:1042A000916569BF095AD2BE3CBF68BF4136D5BED1
:1042B000A81668BF6B10D8BED86B67BF80E8DABE9F
:1042C000CCBE66BF79BEDDBE880F66BF4F92E0BE32
:1042D0000B5E65BFFA63E3BE59AA64BF7533E6BEE1
:1042E00073F463BFB700E9BE5A3C63BFBBCBEBBE00
:1042F000108262BF7994EEBE98C561BFEA5AF1BEE2
:10430000F20661BF071FF4BE214660BFCBE0F6BED8
:1043100027835FBF2DA0F9BE05BE5EBF275DFCBE33
:10432000BEF65DBFB217FFBE532D5DBFE4E700BF11
:10433000C7615CBFB14202BF1A945BBF3D9C03BF23
:1043400050C45ABF84F404BF6AF259BF824B06BFFF
:104350006A1E59BF36A107BF534858BF9BF508BF17
:10436000267057BFAD480ABFE59556BF6B9A0BBF85
:1043700093B955BFD0EA0CBF31DB54BFDA390EBF59
:10438000C3FA53BF84870FBF491853BFCDD310BFA3
:10439000C63352BFB01E12BF3D4D51BF2A6813BF76
:1043A000AF6450BF39B014BF1F7A4FBFD9F615BFE5
:1043B000908D4EBF073C17BF029F4DBFC07F18BFF7
:1043C00079AE4CBF00C219BFF8BB4BBFC6021BBFC2
:1043D0007FC74ABF0C421CBF12D149BFD17F1DBF4E
:1043E000B3D848BF12BC1EBF65DE47BFCBF61FBFA8
:1043F0002AE246BFF92F21BF03E445BF996722BFD8
:10440000F5E344BFA99D23BF00E243BF25D224BFEB
:1044100029DE42BF0A0526BF70D841BF563627BFE6
:10442000DAD040BF056628BF67C73FBF159429BFD4
:104430001BBC3EBF82C02ABFF9AE3DBF4AEB2BBFBB
:1044400003A03CBF69142DBF3B8F3BBFDE3B2EBF9B
:10445000A47C3ABFA5612FBF426839BFBB8530BF7E
:10446000165238BF1DA831BF233A37BFC9C832BF63
:104470006C2036BFBCE733BFF30435BFF30435BF50
:10448000BCE733BF6C2036BFC9C832BF233A37BF41
:104490001DA831BF165238BFBB8530BF426839BF37
:1044A000A5612FBFA47C3ABFDE3B2EBF3B8F3BBF35
:1044B00069142DBF03A03CBF4AEB2BBFF9AE3DBF33
:1044C00082C02ABF1BBC3EBF159429BF67C73FBF30
:1044D000056628BFDAD040BF563627BF70D841BF27
:1044E0000A0526BF29DE42BF25D224BF00E243BF12
:1044F000A99D23BFF5E344BF996722BF03E445BFED
:10450000F92F21BF2AE246BFCBF61FBF65DE47BFAA
:1045100012BC1EBFB3D848BFD17F1DBF12D149BF47
:104520000C421CBF7FC74ABFC6021BBFF8BB4BBFB4
:1045300000C219BF79AE4CBFC07F18BF029F4DBFEC
:10454000073C17BF908D4EBFD9F615BF1F7A4FBFDE
:1045500039B014BFAF6450BF2A6813BF3D4D51BF7F
:10456000B01E12BFC63352BFCDD310BF491853BFC0
:1045700084870FBFC3FA53BFDA390EBF31DB54BF94
:10458000D0EA0CBF93B955BF6B9A0BBFE59556BFE8
:10459000AD480ABF267057BF9BF508BF534858BFA8
:1045A00036A107BF6A1E59BF824B06BF6AF259BFC8
:1045B00084F404BF50C45ABF3D9C03BF1A945BBF30
:1045C000B14202BFC7615CBFE4E700BF532D5DBFCE
:1045D000B217FFBEBEF65DBF275DFCBE05BE5EBF67
:1045E0002DA0F9BE27835FBFCBE0F6BE214660BF9A
:1045F000071FF4BEF20661BFEA5AF1BE98C561BF5B
:104600007994EEBE108262BFBBCBEBBE5A3C63BF57
:10461000B700E9BE73F463BF7533E6BE59AA64BF41
:10462000FA63E3BE0B5E65BF4F92E0BE880F66BFC4
:1046300079BEDDBECCBE66BF80E8DABED86B67BF90
:104640006B10D8BEA81668BF4136D5BE3CBF68BF48
:10465000095AD2BE916569BFCA7BCFBEA7096ABF9E
:104660008B9BCCBE7BAB6ABF53B9C9BE0C4B6BBF37
:1046700029D5C6BE58E86BBF15EFC3BE5E836CBFBD
:104680001E07C1BE1D1C6DBF4A1DBEBE93B26DBFCD
:10469000A031BBBEBE466EBF2A44B8BE9ED86EBF18
:1046A000EC54B5BE30686FBFEF63B2BE73F56FBF39
:1046B0003A71AFBE668070BFD47CACBE080971BFD2
:1046C000C486A9BE578F71BF128FA6BE521372BF88
:1046D000C595A3BEF89472BFE59AA0BE471473BFF8
:1046E000789E9DBE3F9173BF86A09ABEDD0B74BFBE
:1046F00017A197BE228474BF31A094BE0BFA74BF79
:10470000DD9D91BE976D75BF229A8EBEC6DE75BFC8
:1047100007958BBE974D76BF938E88BE07BA76BF3E
:10472000CE8685BE172477BFC07D82BEC58B77BF7E
:10473000E1E67EBE10F177BFCCCF78BEF85378BFEC
:1047400051B672BE7BB478BF7F9A6CBE981279BFA7
:10475000667C66BE4E6E79BF135C60BE9DC779BF36
:1047600097395ABE841E7ABF011554BE02737ABFB0
:1047700060EE4DBE16C57ABFC2C547BEBE147BBF34
:10478000379B41BEFC617BBFCF6E3BBECDAC7BBFD8
:10479000984035BE31F57BBFA2102FBE283B7CBFB1
:1047A000FCDE28BEB07E7CBFB6AB22BEC9BF7CBFDC
:1047B000DE761CBE73FE7CBF834016BEAC3A7DBF66
:1047C000B70810BE74747DBF86CF09BECCAB7DBF69
:1047D000029503BEB1E07DBF73B2FABD24137EBF64
:1047E0007638EEBD23437EBF2EBCE1BDB0707EBFE8
:1047F000B93DD5BDC99B7EBF36BDC8BD6DC47EBFAA
:10480000C33ABCBD9DEA7EBF80B6AFBD580E7FBF28
:104810008C30A3BD9D2F7FBF05A996BD6D4E7FBF78
:104820000A208ABDC76A7FBF742B7BBDAB847FBF64
:10483000681462BD189C7FBF2FFB48BD0FB17FBFBE
:1048400007E02FBD8FC37FBF2CC316BD98D37FBF9A
:10485000B949FBBC29E17FBFB00AC9BC43EC7FBFAB
:10486000B6C996BCE6F47FBF900E49BC11FB7FBF72
:10487000890FC9BBC4FE7FBF00000080000080BF5D
:10488000890FC93BC4FE7FBF900E493C11FB7FBF1F
:10489000B6C9963CE6F47FBFB00AC93C43EC7FBF83
:1048A000B949FB3C29E17FBF2CC3163D98D37FBF9C
:1048B00007E02F3D8FC37FBF2FFB483D0FB17FBF68
:1048C0006814623D189C7FBF742B7B3DAB847FBF17
:1048D0000A208A3DC76A7FBF05A9963D6D4E7FBFFE
:1048E0008C30A33D9D2F7FBF80B6AF3D580E7FBF5C
:1048F000C33ABC3D9DEA7EBF36BDC83D6DC47EBF98
:10490000B93DD53DC99B7EBF2EBCE13DB0707EBF99
:104910007638EE3D23437EBF73B2FA3D24137EBF4B
:104920000295033EB1E07DBF86CF093ECCAB7DBF93
:10493000B708103E74747DBF8340163EAC3A7DBF0D
:10494000DE761C3E73FE7CBFB6AB223EC9BF7CBF89
:10495000FCDE283EB07E7CBFA2102F3E283B7CBFF1
:104960009840353E31F57BBFCF6E3B3ECDAC7BBF33
:10497000379B413EFC617BBFC2C5473EBE147BBF37
:1049800060EE4D3E16C57ABF0115543E02737ABFE4
:1049900097395A3E841E7ABF135C603E9DC779BF2B
:1049A000667C663E4E6E79BF7F9A6C3E981279BFE8
:1049B00051B6723E7BB478BFCCCF783EF85378BF07
:1049C000E1E67E3E10F177BFC07D823EC58B77BFAA
:1049D000CE86853E172477BF938E883E07BA76BF72
:1049E00007958B3E974D76BF229A8E3EC6DE75BFE9
:1049F000DD9D913E976D75BF31A0943E0BFA74BF5B
:104A000017A1973E228474BF86A09A3EDD0B74BF27
:104A1000789E9D3E3F9173BFE59AA03E471473BFB9
:104A2000C595A33EF89472BF128FA63E521372BF73
:104A3000C486A93E578F71BFD47CAC3E080971BFB4
:104A40003A71AF3E668070BFEF63B23E73F56FBFE1
:104A5000EC54B53E30686FBF2A44B83E9ED86EBF56
:104A6000A031BB3EBE466EBF4A1DBE3E93B26DBF77
:104A70001E07C13E1D1C6DBF15EFC33E5E836CBF9C
:104A800029D5C63E58E86BBF53B9C93E0C4B6BBF26
:104A90008B9BCC3E7BAB6ABFCA7BCF3EA7096ABF6C
:104AA000095AD23E916569BF4136D53E3CBF68BFC9
:104AB0006B10D83EA81668BF80E8DA3ED86B67BF97
:104AC00079BEDD3ECCBE66BF4F92E03E880F66BF2A
:104AD000FA63E33E0B5E65BF7533E63E59AA64BFD9
:104AE000B700E93E73F463BFBBCBEB3E5A3C63BFF8
:104AF0007994EE3E108262BFEA5AF13E98C561BFDA
:104B0000071FF43EF20661BFCBE0F63E214660BFD0
:104B10002DA0F93E27835FBF275DFC3E05BE5EBF2B
:104B2000B217FF3EBEF65DBFE4E7003F532D5DBF09
:104B3000B142023FC7615CBF3D9C033F1A945BBF1B
:104B400084F4043F50C45ABF824B063F6AF259BFF7
:104B500036A1073F6A1E59BF9BF5083F534858BF0F
:104B6000AD480A3F267057BF6B9A0B3FE59556BF7D
:104B7000D0EA0C3F93B955BFDA390E3F31DB54BF51
:104B800084870F3FC3FA53BFCDD3103F491853BF9B
:104B9000B01E123FC63352BF2A68133F3D4D51BF6E
:104BA00039B0143FAF6450BFD9F6153F1F7A4FBFDD
:104BB000073C173F908D4EBFC07F183F029F4DBFEF
:104BC00000C2193F79AE4CBFC6021B3FF8BB4BBFBA
:104BD0000C421C3F7FC74ABFD17F1D3F12D149BF46
:104BE00012BC1E3FB3D848BFCBF61F3F65DE47BFA0
:104BF000F92F213F2AE246BF9967223F03E445BFD0
:104C0000A99D233FF5E344BF25D2243F00E243BFE3
:104C10000A05263F29DE42BF5636273F70D841BFDE
:104C20000566283FDAD040BF1594293F67C73FBFCC
:104C300082C02A3F1BBC3EBF4AEB2B3FF9AE3DBFB3
:104C400069142D3F03A03CBFDE3B2E3F3B8F3BBF93
:104C5000A5612F3FA47C3ABFBB85303F426839BF76
:104C60001DA8313F165238BFC9C8323F233A37BF5B
:104C7000BCE7333F6C2036BFF304353FF30435BF48
:104C80006C20363FBCE733BF233A373FC9C832BF39
:104C90001652383F1DA831BF4268393FBB8530BF2F
:104CA000A47C3A3FA5612FBF3B8F3B3FDE3B2EBF2D
:104CB00003A03C3F69142DBFF9AE3D3F4AEB2BBF2B
:104CC0001BBC3E3F82C02ABF67C73F3F159429BF28
:104CD000DAD0403F056628BF70D8413F563627BF1F
:104CE00029DE423F0A0526BF00E2433F25D224BF0A
:104CF000F5E3443FA99D23BF03E4453F996722BFE5
:104D00002AE2463FF92F21BF65DE473FCBF61FBFA2
:104D1000B3D8483F12BC1EBF12D1493FD17F1DBF3F
:104D20007FC74A3F0C421CBFF8BB4B3FC6021BBFAC
:104D300079AE4C3F00C219BF029F4D3FC07F18BFE4
:104D4000908D4E3F073C17BF1F7A4F3FD9F615BFD6
:104D5000AF64503F39B014BF3D4D513F2A6813BF77
:104D6000C633523FB01E12BF4918533FCDD310BFB8
:104D7000C3FA533F84870FBF31DB543FDA390EBF8C
:104D800093B9553FD0EA0CBFE595563F6B9A0BBFE0
:104D90002670573FAD480ABF5348583F9BF508BFA0
:104DA0006A1E593F36A107BF6AF2593F824B06BFC0
:104DB00050C45A3F84F404BF1A945B3F3D9C03BF28
:104DC000C7615C3FB14202BF532D5D3FE4E700BFC6
:104DD000BEF65D3FB217FFBE05BE5E3F275DFCBE5F
:104DE00027835F3F2DA0F9BE2146603FCBE0F6BE92
:104DF000F206613F071FF4BE98C5613FEA5AF1BE53
:104E00001082623F7994EEBE5A3C633FBBCBEBBE4F
:104E100073F4633FB700E9BE59AA643F7533E6BE39
:104E20000B5E653FFA63E3BE880F663F4F92E0BEBC
:104E3000CCBE663F79BEDDBED86B673F80E8DABE88
:104E4000A816683F6B10D8BE3CBF683F4136D5BE40
:104E50009165693F095AD2BEA7096A3FCA7BCFBE96
:104E60007BAB6A3F8B9BCCBE0C4B6B3F53B9C9BE2F
:104E700058E86B3F29D5C6BE5E836C3F15EFC3BEB5
:104E80001D1C6D3F1E07C1BE93B26D3F4A1DBEBEC5
:104E9000BE466E3FA031BBBE9ED86E3F2A44B8BE10
:104EA00030686F3FEC54B5BE73F56F3FEF63B2BE31
:104EB0006680703F3A71AFBE0809713FD47CACBECA
:104EC000578F713FC486A9BE5213723F128FA6BE80
:104ED000F894723FC595A3BE4714733FE59AA0BEF0
:104EE0003F91733F789E9DBEDD0B743F86A09ABEB6
:104EF0002284743F17A197BE0BFA743F31A094BE71
:104F0000976D753FDD9D91BEC6DE753F229A8EBEC0
:104F1000974D763F07958BBE07BA763F938E88BE36
:104F20001724773FCE8685BEC58B773FC07D82BE76
:104F300010F1773FE1E67EBEF853783FCCCF78BEE4
:104F40007BB4783F51B672BE9812793F7F9A6CBE9F
:104F50004E6E793F667C66BE9DC7793F135C60BE2E
:104F6000841E7A3F97395ABE02737A3F011554BEA8
:104F700016C57A3F60EE4DBEBE147B3FC2C547BE2C
:104F8000FC617B3F379B41BECDAC7B3FCF6E3BBED0
:104F900031F57B3F984035BE283B7C3FA2102FBEA9
:104FA000B07E7C3FFCDE28BEC9BF7C3FB6AB22BED4
:104FB00073FE7C3FDE761CBEAC3A7D3F834016BE5E
:104FC00074747D3FB70810BECCAB7D3F86CF09BE61
:104FD000B1E07D3F029503BE24137E3F73B2FABD5C
:104FE00023437E3F7638EEBDB0707E3F2EBCE1BDE0
:104FF000C99B7E3FB93DD5BD6DC47E3F36BDC8BDA2
:105000009DEA7E3FC33ABCBD580E7F3F80B6AFBD20
:105010009D2F7F3F8C30A3BD6D4E7F3F05A996BD70
:10502000C76A7F3F0A208ABDAB847F3F742B7BBD5C
:10503000189C7F3F681462BD0FB17F3F2FFB48BDB6
:105040008FC37F3F07E02FBD98D37F3F2CC316BD92
:1050500029E17F3FB949FBBC43EC7F3FB00AC9BCA3
:10506000E6F47F3FB6C996BC11FB7F3F900E49BC6A
:10507000C4FE7F3F890FC9BB08000010100000026A
:105080001800001220000004280000143000000660
:105090003800001640000008480000185000000AC0
:1050A0005800001A6000000C6800001C7000000E20
:1050B0007800001E80000008880040109000400228
:1050C00098004012A0004004A8004014B000400620
:1050D000B8004016C0004008C8004018D000400A80
:1050E000D800401AE000400CE800401CF000400EE0
:1050F000F800401E00010008080180101001800225
:1051000018018012200180042801801430018006DB
:105110003801801640018008480180185001800A3B
:105120005801801A6001800C6801801C7001800E9B
:105130007801801E800140088801C0109001C002E3
:105140009801C012A001C004A801C014B001C0069B
:10515000B801C016C001C008C801C018D001C00AFB
:10516000D801C01AE001C00CE801C01CF001C00E5B
:10517000F801C01E0002000808020011100200031E
:105180001802001320020005280200153002000753
:105190003802001740020009480200195002000BB3
:1051A0005802001B6002000D6802001D7002000F13
:1051B0007802001F8002800888024011900240039C
:1051C00098024013A0024005A8024015B002400713
:1051D000B8024017C0024009C8024019D002400B73
:1051E000D802401BE002400DE802401DF002400FD3
:1051F000F802401F000340080803801110038003D9
:1052000018038013200380052803801530038007CE
:105210003803801740038009480380195003800B2E
:105220005803801B6003800D6803801D7003800F8E
:105230007803801F8003C0088803C0119003C00357
:105240009803C013A003C005A803C015B003C0078E
:10525000B803C017C003C009C803C019D003C00BEE
:10526000D803C01BE003C00DE803C01DF003C00F4E
:10527000F803C01F000400100804081010040011F7
:105280001804081220040810280408143004080622
:105290003804081640040808480408185004080A8E
:1052A0005804081A6004080C6804081C7004080EEE
:1052B0007804081E8004001888044810900400191F
:1052C00098044812A0040818A8044814B00448061A
:1052D000B8044816C0044808C8044818D004480A4E
:1052E000D804481AE004480CE804481CF004480EAE
:1052F000F804481E000540100805881010054011EC
:1053000018058812200548102805881430058806DD
:105310003805881640058808480588185005880A09
:105320005805881A6005880C6805881C7005880E69
:105330007805881E800540188805C810900540191A
:105340009805C812A0054818A805C814B005C806D5
:10535000B805C816C005C808C805C818D005C80AC9
:10536000D805C81AE005C80CE805C81CF005C80E29
:10537000F805C81E000680100806081110068011E6
:105380001806081320068810280608153006080796
:105390003806081740060809480608195006080B81
:1053A0005806081B6006080D6806081D7006080FE1
:1053B0007806081F80068018880648119006801914
:1053C00098064813A0068818A8064815B00648078E
:1053D000B8064817C0064809C8064819D006480B41
:1053E000D806481BE006480DE806481DF006480FA1
:1053F000F806481F0007C010080788111007C011E1
:10540000180788132007C810280788153007880751
:105410003807881740078809480788195007880BFC
:105420005807881B6007880D6807881D7007880F5C
:105430007807881F8007C0188807C8119007C0190F
:105440009807C813A007C818A807C815B007C80749
:10545000B807C817C007C809C807C819D007C80BBC
:10546000D807C81BE007C80DE807C81DF007C80F1C
:10547000F807C81F08081010100840081808101274
:105480002008001128081014300880113808101660
:10549000480810185008100A5808101A6008100C14
:1054A0006808101C7008100E7808101E8008000A8A
:1054B000880850109008000B98085012A008080A9D
:1054C000A8085014B008080BB8085016C008100AF5
:1054D000C8085018D008500AD808501AE008500CD4
:1054E000E808501CF008500EF808501E08099010EB
:1054F0001009800918099012200900192809901430
:1055000030098019380990164009000B4809901895
:105510005009900A5809901A6009900C6809901C6B
:105520007009900E7809901E8009400A8809D010F1
:105530009009400B9809D012A009480AA809D01474
:10554000B009480BB809D016C009500AC809D018CC
:10555000D009D00AD809D01AE009D00CE809D01C2B
:10556000F009D00EF809D01E080A1011180A1013FD
:10557000200A4011280A1015300AC011380A1017E5
:10558000480A1019500A100B580A101B600A100D17
:10559000680A101D700A100F780A101F880A50112F
:1055A000900A800B980A5013A00A5011A80A5015AF
:1055B000B00A880BB80A5017C00A800BC80A5019E5
:1055C000D00A500BD80A501BE00A500DE80A501DB3
:1055D000F00A500FF80A501F080B9011180B901387
:1055E000200B4019280B9015300BC019380B901761
:1055F000480B9019500B900B580B901B600B900DA3
:10560000680B901D700B900F780B901F880BD011BA
:10561000900BC00B980BD013A00B5019A80BD015F2
:10562000B00BC80BB80BD017C80BD019D80BD01BB8
:10563000E00BD00DE80BD01DF00BD00FF80BD01FF6
:10564000000C0012080C1810100C0013180C181283
:10565000200C0812280C1814300C0813380C1816DB
:10566000400C1012480C1818500C1013580C181A33
:10567000600C1812680C181C700C180E780C181E90
:10568000800C001A880C5810900C001B980C5812B3
:10569000A00C081AA80C5814B00C081BB80C58160B
:1056A000C00C101AC80C5818D00C101BD80C581A63
:1056B000E00C181AE80C581CF00C580EF80C581E88
:1056C000000D4012080D9810100D4013180D98127F
:1056D000200D4812280D9814300D4813380D9816D7
:1056E000400D5012480D9818500D5013580D981A2F
:1056F000600D5812680D981C700D980E780D981E4C
:10570000800D401A880DD810900D401B980DD812AE
:10571000A00D481AA80DD814B00D481BB80DD81606
:10572000C00D501AC80DD818D00D501BD80DD81A5E
:10573000E00D581AE80DD81CF00DD80EF80DD81E43
:10574000000E8012080E1811100E8013180E181378
:10575000200E8812280E1815300E8813380E1817D0
:10576000400E9012480E1819500E9013580E181B28
:10577000600E9812680E181D700E180F780E181F04
:10578000800E801A880E5811900E801B980E5813A8
:10579000A00E881AA80E5815B00E881BB80E581700
:1057A000C00E901AC80E5819D00E901BD80E581B58
:1057B000E00E981AE80E581DF00E580FF80E581FFC
:1057C000000FC012080F9811100FC013180F981374
:1057D000200FC812280F9815300FC813380F9817CC
:1057E000400FD012480F9819500FD013580F981B24
:1057F000600FD812680F981D700F980F780F981FC0
:10580000800FC01A880FD811900FC01B980FD813A3
:10581000A00FC81AA80FD815B00FC81BB80FD817FB
:10582000C00FD01AC80FD819D00FD01BD80FD81B53
:10583000E00FD81AE80FD81DF00FD81BF80FD81FAB
:1058400008102010101040101810201228102014DA
:105850003010881038102016401000114810201801
:10586000501040115810201A601008126810201CA7
:10587000701088127810201E8010001288100812F4
:105880009010401298106012A0102012A8106014FE
:10589000B0106012B8106016C0100013C810601865
:1058A000D0104013D810601AE0101812E810601CD5
:1058B000F0109812F810601E0811201210114011FB
:1058C0001811A012201108182811A01430118818DE
:1058D0003811A0164811A0185811A01A6011081A02
:1058E0006811A01C7011881A7811A01E8011101266
:1058F00088111812901150129811E012A011181866
:10590000A811E014B0119818B811E016C0111013C6
:10591000C811E018D0115013D811E01AE011181A6C
:10592000E811E01CF011981AF811E01E001200189E
:1059300008120818101240181812201320122018EC
:105940002812201530126018381220174012001942
:1059500048122019501240195812201B60122019A9
:105960006812201D7012C8127812201F8012001AAF
:105970008812081A9012401A98126013A012201A66
:10598000A8126015B012601AB8126017C012001B7E
:10599000C8126019D012401BD812601BE012201BE5
:1059A000E812601DF012601BF812601F001310183F
:1059B00008131818101350181813A01320134818A0
:1059C0002813A0153013C8183813A0174013101946
:1059D0004813A019501350195813A01B6013481AEC
:1059E0006813A01D7013C81A7813A01F8013101A13
:1059F0008813181A9013501A9813E013A01358180C
:105A0000A813E015B013D818B813E017C013101B73
:105A1000C813E019D013501BD813E01BE013581A19
:105A2000E813E01DF013D81AF813E01F081420142F
:105A300010140015181420153014081538142816E1
:105A40004014001548142818501410155814281A1A
:105A5000601420156814281C701418157814281E5A
:105A60008014001C8814201C9014001D9814201D04
:105A7000A014081CA814281CB014081DB81468161B
:105A8000C014101CC8146818D014101DD814681A3B
:105A9000E014181CE814681CF014181DF814681E93
:105AA0000815201510154015181560152015281813
:105AB0002815281C301548153815A8164815A8189B
:105AC0005815A81A6015281A6815A81C7015A81A68
:105AD0007815A81E8015401C8815601C9015401D67
